:100000000C94E0000C9408010C9408010C94650415
:100010000C9492040C94BF040C9408010C940801F5
:100020000C9408010C9408010C9408010C948305AD
:100030000C9408010C9408010C9408010C9408011C
:100040000C94440F0C9408010C9408010C940801C2
:100050000C9408010C9408010C9408010C940801FC
:100060000C9408010C9408010000000024002700F3
:100070002A0000000000250028002B0000000000DE
:1000800023002600290004040404040404040202DA
:100090000202020203030303030301020408102007
:1000A0004080010204081020010204081020000012
:1000B0000007000201000003040600000000000029
:1000C000000000407A10F35A00A0724E1809001088
:1000D000A5D4E80000E87648170000E40B540200BD
:1000E00000CA9A3B000000E1F505000080969800E8
:1000F000000040420F000000A08601000000102711
:1001000000000000E80300000000640000000000A0
:100110000A00000000000100000000002C76D888D2
:10012000DC674F0823DFC1DFAE59E1B1B796E5E3E5
:10013000E453C63AE651997696E8E6C28426EB89FE
:100140008C9B62ED407C6FFCEFBC9C9F40F2BAA59B
:100150006FA5F490055A2AF75C936B6CF9676DC133
:100160001BFCE0E40D47FEF520E6B500D0ED902E37
:100170000300943577050080841E080000204E0A95
:10018000000000C80C333333330F986E12831141D3
:10019000EF8D2114893BE65516CFFEE6DB18D1849E
:1001A0004B381BF77C1D901DA4BBE42420328472C5
:1001B0005E228100C9F124ECA1E53D278C0685066D
:1001C00011241FBECFEFD8E0DEBFCDBF11E0A0E00D
:1001D000B1E0E0E4F1E302C005900D92A03CB1076C
:1001E000D9F715E0A0ECB1E001C01D92A533B1072D
:1001F000E1F711E0CEEBD1E004C02297FE010E94AE
:100200008F18CC3BD107C9F70E9452140C942B01D4
:100210000C940000EF92FF920F931F93F22FF02E99
:1002200047FD02C0E4E001C0E4E1242F332727FDAD
:10023000309537FF03C0309521953F4F4F2D512FFB
:100240000F2FEE2E0E948B018F2D912F1F910F915A
:10025000FF90EF900895F8940C949318FB01DC0143
:1002600002C001900D9241505040D8F70895681790
:10027000790768F4FB01DC01E40FF51FA40FB51F3B
:1002800002C002900E9241505040D8F708950C944D
:100290002E01FB01DC0101900D920020E1F7089591
:1002A000FB0151915523A9F0BF01DC014D91451788
:1002B0004111E1F759F4CD010190002049F04D9131
:1002C00040154111C9F3FB014111EFCF81E090E0EE
:1002D00001970895FB019F01E8944230C4F0453234
:1002E000B4F44A3029F497FB1EF4909581959F4F02
:1002F000642F77270E94F217805D8A330CF0895DA6
:100300008193CB010097A1F716F45DE2519310821F
:10031000C9010C94C503A9E0B0E0E1E9F1E00C9457
:100320005A186A01122FA02EBE2C2BE3201718F4A6
:100330002CE3922E02C0902E9394AE014F5F5F4F3C
:1003400027E0092D0E94ED02BC018981E82EFF24DF
:10035000C70189709070019711F4ADE209C0B1FE38
:1003600002C0ABE205C0B0FC02C0A0E001C0A0E248
:10037000E3FE3BC0AA2311F423E001C024E02117CF
:1003800010F020E002C0121B212FEB2CB4FE02C0A3
:10039000322F0AC0F601322F80E202C08193315021
:1003A0003323E1F7C20ED11CAA2319F0F601A19361
:1003B0006F01F6013196E2FE05C09EE4D6019C93E2
:1003C00081E404C09EE6D6019C9381E611968C934D
:1003D00091833296DF01832F90E202C09D9381507A
:1003E0008823E1F7E30FF11D40C0E2FE42C0AA23DB
:1003F00011F423E001C024E0211710F020E002C036
:10040000121B212FEB2CB4FE02C0922F0AC0F60162
:10041000922F80E202C0819391509923E1F7C20E9E
:10042000D11CAA2319F0F601A1936F01F6013196B0
:10043000E2FE08C089E4D6018C938EE411968C9379
:1004400086E407C089E6D6018C938EE611968C93DC
:1004500086E681833296DF01892F20E202C02D9348
:1004600081508823E1F7E90FF11D10822EEF3FEF55
:10047000AFC0161617061CF041E050E003C0AB01F8
:100480004F5F5F4FAA2019F480E090E003C08A2DEF
:1004900090E0019620E030E0AA2311F021E030E066
:1004A000240F351F280F391F812F90E02817390797
:1004B00014F020E002C0121B212F4B2D50E0CA0186
:1004C00080719070B4FC0DC0B3FC0BC0F601322FEC
:1004D00040E202C0419331503323E1F7C20ED11CF8
:1004E00001C0322FAA2319F0F601A1936F01892BC5
:1004F00011F0132F0AC0F601132F80E302C081937D
:1005000011501123E1F7C30ED11C092D060FBA803B
:1005100090E1892E912C8E209F20E4FE04C0F1E30F
:10052000BF1609F40150101614F001E003C00930A1
:1005300008F008E09B0177FF02C020E030E0CB012B
:100540000196821B930BFE013196E80FF91F8EE294
:10055000F82E3B01601A71088A2D90E04427552738
:10056000481B590B8FEF2F3F380719F4D601FD9226
:100570006D01621773072CF06216730614F4808104
:1005800001C080E32150304031962417350724F014
:10059000D6018D936D01E6CF2617370749F4B5E3F1
:1005A000BB1528F0BB1621F48114910409F481E3F2
:1005B000F6018193D601812F90E202C09C93815075
:1005C00011968823D9F7E10FF11D108220E030E069
:1005D000C9012996EEE00C947618283008F027E03F
:1005E0003327DA01990F311D87FD9160009661056F
:1005F000710539F432602E5F3D9330E32A95E1F7BF
:1006000008959F3F30F080387105610509F03C5F27
:100610003C5F3D93913008F08068911DDF93CF934C
:100620001F930F93FF92EF92192F987F9695E92FC2
:1006300096959695E90FFF27E45EFE4F992733279D
:10064000EE24FF24A701E70105900894079428F4FD
:10065000360FE71EF81E491F511D660F771F881FB2
:10066000991F0694A1F70590079428F4E70EF81E49
:10067000491F561FC11D770F881F991F661F0694BB
:10068000A1F70590079428F4F80E491F561FC71FBD
:10069000D11D880F991F661F771F0694A1F705903B
:1006A000079420F4490F561FC71FD81F990F661FC4
:1006B000771F881F0694A9F784911095177041F051
:1006C000D695C79557954795F794E7941A95C1F72E
:1006D000E2ECF0E068941590159135916591959153
:1006E00005907FE27395E118F10A430B560BC90B95
:1006F000D009C0F7E10CF11E431F561FC91FD01DC2
:100700007EF4703311F48A95E6CFE894015030F00E
:10071000080F0AF40027021708F4202F2395022F50
:100720007A3328F079E37D932A95E9F710C07D9319
:100730002A9589F606949795679537951795179496
:10074000E118F10A430B560BC90BD00998F0239519
:100750007E9173957A3308F070E37C932013B8F799
:100760007E9170617D9330F0839571E37D9370E3AA
:100770002A95E1F71124EF90FF900F911F91CF91EF
:10078000DF91992787FD90950895DC01FC01672F83
:1007900071917723E1F7329704C07C916D93708358
:1007A0006291AE17BF07C8F30895CF93DF93EC01B2
:1007B000DB0112962C93129711965C934E93EA816B
:1007C000FB81808113969C911397892B80831296CD
:1007D0008C911297833011F0813031F48D81139612
:1007E0009C911397892B8D8312968C91129781502F
:1007F000823028F48E8113969C91892B8E83809170
:1008000068009C81892B80936800DF91CF910895C7
:10081000EF92FF920F931F93CF93DF938C01509130
:10082000C001D80117962C91179715964C911597E2
:100830009091C00116963C9116978091C0018095C9
:1008400083239423892B252782239091C001179617
:100850009C9317971896CD91DC911997E82EFF2459
:100860001CC08B81282F30E0C70182239323892B62
:1008700089F08091C00140E090E082239323892B8E
:1008800009F041E04093C2018C818093C101E8816D
:10089000F98109950D80DE81C02D209711F78BB36A
:1008A000F8019481892351F08BB3892B8BBB019084
:1008B000F081E02D80818093C001B1CFDF91CF9195
:1008C0001F910F91FF90EF9008951F920F920FB616
:1008D0000F9211242F933F934F935F936F937F93C6
:1008E0008F939F93AF93BF93EF93FF93E091C301D7
:1008F000F091C40180818093C00183EC91E00E945B
:100900000804FF91EF91BF91AF919F918F917F91DB
:100910006F915F914F913F912F910F900FBE0F906C
:100920001F9018951F920F920FB60F9211242F93BC
:100930003F934F935F936F937F938F939F93AF9367
:10094000BF93EF93FF93E091CD01F091CE018081B1
:100950008093C0018DEC91E00E940804FF91EF911B
:10096000BF91AF919F918F917F916F915F914F91C7
:100970003F912F910F900FBE0F901F9018951F92CF
:100980000F920FB60F9211242F933F934F935F93C3
:100990006F937F938F939F93AF93BF93EF93FF9347
:1009A000E091D701F091D80180818093C00187ED5B
:1009B00091E00E940804FF91EF91BF91AF919F9148
:1009C0008F917F916F915F914F913F912F910F90F8
:1009D0000FBE0F901F901895CF93DF939C01EB01F2
:1009E0008091250590912605019667E070E00E94B0
:1009F0000618FC019093260580932505EE0FFF1F36
:100A0000EC0FFD1F3183208320E030E0F901E95E27
:100A1000FA4FDE01A20FB31F8D919C9191838083C9
:100A20002E5F3F4F2E30310589F713C080819181B1
:100A300022813381281739072CF4938382833183F1
:100A4000208340E0329685E0E332F80779F74130C1
:100A500021F0E7E1F5E041E0E9CF609119057091FF
:100A60001A05882777FD8095982F20911B053091D6
:100A70001C05442737FD4095542F620F731F841FB8
:100A8000951F20911D0530911E05442737FD409587
:100A9000542F620F731F841F951F20911F053091E3
:100AA0002005442737FD4095542F620F731F841F84
:100AB000951F2091210530912205442737FD40954F
:100AC000542F620F731F841F951F25E030E040E014
:100AD00050E00E943B18C901DF91CF9108958091A9
:100AE000F7019091F801A091F901B091FA010196F6
:100AF000A11DB11D8093F7019093F801A093F90116
:100B0000B093FA0108951F920F920FB60F9211241D
:100B10008F939F93AF93BF938091F7019091F801CA
:100B2000A091F901B091FA018093FB019093FC012F
:100B3000A093FD01B093FE011092F7011092F8010D
:100B40001092F9011092FA01BF91AF919F918F918C
:100B50000F900FBE0F901F901895CF92EF920F93AA
:100B6000CF93DF938130910509F0B0C06F5F7F4F65
:100B700009F0C5C0E0E8F0E0859194919093C4013C
:100B80008093C3018BE690E09093C6018093C501EA
:100B900081E08093C7011092C8011092C9011092A0
:100BA000CC011092CB01E2E8F0E085919491909312
:100BB000CE018093CD018CE690E09093D00180939C
:100BC000CF0182E08093D1011092D2011092D30123
:100BD0001092D6011092D501E4E8F0E0859194914D
:100BE0009093D8018093D7018DE690E09093DA013D
:100BF0008093D90184E08093DB011092DC01109294
:100C0000DD011092E0011092DF0182EE91E068E0D8
:100C100049E02AE00BE05CE0E52E3DE0C32E0E94B7
:100C2000F80E85EB94E060E071E00E94F7138CEB26
:100C300094E061E171E00E94F71383EC94E062E2DA
:100C400071E00E94F7138AEC94E063E371E00E9484
:100C5000F71381ED94E064E471E00E94F71388EDEE
:100C600094E061E571E00E94F7138FED94E06EE58A
:100C700071E00E94F71386EE94E062E671E00E9454
:100C8000F7138DEE94E066E671E00E94F71384EFAF
:100C900094E06AE671E00E94F7138BEF94E06EE651
:100CA00071E00E94F71382E095E062E771E00E9434
:100CB000F71389E095E066E771E00E94F71380E1A1
:100CC00095E06AE771E00E94F71319C0892BB9F427
:100CD0006F5F7F4FA1F4C0E1D5E0CE010E944C14BC
:100CE000279784E0C83DD807C1F7C8EDD4E0CE010E
:100CF0000E944C14279784E0CE3AD807C1F7DF91C1
:100D0000CF910F91EF90CF90089580E090E06FEF3A
:100D10007FEF0E94AD05089581E090E06FEF7FEFD7
:100D20000E94AD050895AF92BF92CF92DF92EF92ED
:100D3000FF920F931F93DF93CF93CDB7DEB76897E2
:100D40000FB6F894DEBF0FBECDBF62EEA62E61E0F7
:100D5000B62EC5010E943A0EC50160E040E00E9437
:100D60000B0E6091A3017091A401882777FD8095F7
:100D7000982F0E94E4169B01AC0166E87AED87E0AB
:100D800092E40E947A167B018C016E010894C11CCA
:100D9000D11CC6016EE771E00E94F713B701C801CC
:100DA00047E022E08E01015F1F4F0E940A01BC0153
:100DB0008E01085F1F4FC8010E94F713C601B801DA
:100DC0000E94BC13C501B6010E940C11C50160E070
:100DD00041E00E940B0EC60165E871E00E9411140B
:100DE000C501B6010E940C1168EE73E080E090E04E
:100DF0000E948C0FC8010E944C14C6010E944C1422
:100E000068960FB6F894DEBF0FBECDBFCF91DF91CD
:100E10001F910F91FF90EF90DF90CF90BF90AF9018
:100E20000895CF92DF92EF92FF920F931F93DF937B
:100E3000CF93CDB7DEB727970FB6F894DEBF0FBEBE
:100E4000CDBF03EC14E06E010894C11CD11CC60197
:100E5000B8010E94411472EEE72E71E0F72EC7012F
:100E60000E943A0EC70160E040E00E940B0EC701ED
:100E7000B6010E940C11095F1F4FC601B8010E9404
:100E80002A14C70160E041E00E940B0EC701B601C1
:100E90000E940C1168EE73E080E090E00E948C0FDD
:100EA000C6010E944C1427960FB6F894DEBF0FBE01
:100EB000CDBFCF91DF911F910F91FF90EF90DF9009
:100EC000CF900895CF92DF92EF92FF920F931F93EE
:100ED000DF93CF93CDB7DEB727970FB6F894DEBF79
:100EE0000FBECDBFCE01019660E971E00E94F713FD
:100EF0006091A701FFE8EF2EF4E0FF2E870140E0AC
:100F000050E0262F30E0220F331F2E0D3F1D06C06C
:100F1000D8018D919D918D01480F591F021713071C
:100F2000B9F7CA0170E00E9406186B01EFE9F4E01E
:100F300009C0D7018D919D917D019601281B390B28
:100F400021933193E016F106A1F782EE91E00E9421
:100F50003A0E82EE91E060E040E00E940B0E8E01BE
:100F60000F5F1F4FC80165EB74E00E942A1482EEE8
:100F700091E0B8010E940C1182EE91E060E041E046
:100F80000E940B0EC8016CEB74E00E942A1482EEE2
:100F900091E0B8010E940C1160ED77E080E090E0F4
:100FA0000E948C0F82EE91E00E943A0E82EE91E058
:100FB00060E040E00E940B0EC80161ED74E00E9409
:100FC0002A14C8016091A7010E94801382EE91E06B
:100FD000B8010E940C1182EE91E060E041E00E94B5
:100FE0000B0EC80168ED74E00E942A14C801B60116
:100FF0000E944F1382EE91E0B8010E940C1168EE3E
:1010000073E080E090E00E948C0F82EE91E00E94FD
:101010003A0E82EE91E060E040E00E940B0EC801C3
:1010200060E971E00E94111460919F047091A00426
:10103000C8010E944F13C80161E971E00E94AC131E
:101040006091A3047091A404C8010E944F13C801C9
:1010500061E971E00E94AC136091A7047091A8044B
:10106000C8010E944F1382EE91E0B8010E940C115A
:1010700082EE91E060E041E00E940B0EC80160E961
:1010800071E00E9411146091A1047091A204C80142
:101090000E944F13C80161E971E00E94AC13609196
:1010A000A5047091A604C8010E944F13C80161E90C
:1010B00071E00E94AC136091A9047091AA04C80168
:1010C0000E944F1382EE91E0B8010E940C1168EE6D
:1010D00073E080E090E00E948C0FC8010E944C14E5
:1010E00027960FB6F894DEBF0FBECDBFCF91DF912C
:1010F0001F910F91FF90EF90DF90CF9008956F9226
:101100007F928F929F92AF92BF92CF92DF92EF9297
:10111000FF920F931F93DF93CF93CDB7DEB7C357E3
:10112000D0400FB6F894DEBF0FBECDBFCE01019602
:1011300060E971E00E94F713CE01089660E971E062
:101140000E94F713CE010F9660E971E00E94F71339
:1011500064EF71E080E090E00E948C0F8091FB01D1
:101160009091FC01A091FD01B091FE0167EA74E04D
:101170000E94EC04AA2797FDA095BA2FBC01CD01CF
:101180000E94E41620E030E040E752E40E9470172D
:101190004B015C016091E101623068F070E080E039
:1011A00090E00E94E2169B01AC01C501B4010E94CF
:1011B0007A164B015C0182EE91E00E943A0ECE015C
:1011C000019663EC74E00E942A1438E0E32EF12CBF
:1011D000EC0EFD1EC7016AEC74E00E942A14809197
:1011E000A701843009F44BC0853038F4823009F40B
:1011F000D4C0833009F033C17FC08530C1F0863060
:1012000009F02DC18E01015F1F4FC80160E971E037
:101210000E9411146091A1047091A204C8010E945F
:101220004F13C70162E075E0A8010E9401128E0110
:101230000A5E1F4FC80160E971E00E94F713CE01FA
:10124000089662E075E0A8010E940112C8010E94A0
:101250004C148E01015F1F4FC80160E971E00E94CC
:10126000111460919F047091A004C8010E944F1353
:10127000CE0101966BEF74E0A8010E9401128E016D
:10128000035E1F4FC80160E971E00E94F71328E078
:10129000E22EF12CEC0EFD1EC70162E075E0A80104
:1012A0000E940112C8010E944C148E010C5D1F4F58
:1012B000C80160E971E00E94F713CE0101966BEF5F
:1012C00074E0A8010E940112C8010E944C148E0112
:1012D000015F1F4FC80160E971E00E941114609125
:1012E0009D0470919E04C8010E944F13C70164EFD2
:1012F00074E0A8010E9401128E01055D1F4FC80114
:1013000060E971E00E94F71398E0E92EF12CEC0EF1
:10131000FD1EC70162E075E0A8010E940112C8012C
:101320000E944C148E010E5C1F4FC80160E971E0F1
:101330000E94F7136E010894C11CD11CC6016BEF0B
:1013400074E0A8010E940112C8010E944C148E0191
:10135000075C1F4FC80160E971E00E94F713C701E5
:1013600064EF74E0A8010E940112C8010E944C14AD
:101370008E01015F1F4FC80160E971E00E941114E6
:1013800060919B0470919C04C8010E944F13C60198
:101390006DEE74E0A8010E9401128E01005C1F4FE7
:1013A000C80160E971E00E94F71388E0E82EF12C93
:1013B000EC0EFD1EC70162E075E0A8010E9401125B
:1013C000C8010E944C148E01095B1F4FC80160E9DF
:1013D00071E00E94F7136E010894C11CD11CC60174
:1013E0006BEF74E0A8010E940112C8010E944C1426
:1013F0008E01025B1F4FC80160E971E00E94F71384
:10140000C70164EF74E0A8010E940112C8010E94A4
:101410004C148E010B5A1F4FC80160E971E00E9405
:10142000F713C6016DEE74E0A8010E940112C80115
:101430000E944C148E01015F1F4FC80160E971E0EA
:101440000E9411146091990470919A04C8010E943D
:101450004F13C70166EE74E0A8010E9401120FE06D
:10146000E02EF12CEC0EFD1EC70160E971E00E9438
:1014700011146091970470919804C7010E944F1352
:101480006E010894C11CD11CC6016FED74E0A70168
:101490000E9401128091FB019091FC01A091FD013D
:1014A000B091FE0118E0612E712C6C0E7D1E00972C
:1014B000A105B105C9F0C70160E971E00E941114EE
:1014C000C501B40143E020E08E0106591F4F0E9480
:1014D0000A01BC01C7010E94AC13C30160E175E0C1
:1014E000A7010E94011222C08E01045A1F4FC80199
:1014F00063E971E00E94F713C60169E075E0A80195
:101500000E940112C8010E944C148E010D591F4FF8
:10151000C80163E971E00E94F713C30160E175E05F
:10152000A8010E940112C8010E944C1482EE91E0B1
:1015300060E040E00E940B0E82EE91E0BE016F5F22
:101540007F4F0E940C1182EE91E060E041E00E942A
:101550000B0E82EE91E0BE01685F7F4F0E940C117E
:101560008091A701E7E9F4E090E0880F991F8E0FC2
:101570009F1F02C011921192E817F907D9F7CE0107
:101580000F960E944C14CE0108960E944C14CE0176
:1015900001960E944C14CD58DF4F0FB6F894DEBF71
:1015A0000FBECDBFCF91DF911F910F91FF90EF90B4
:1015B000DF90CF90BF90AF909F908F907F906F9073
:1015C00008952F923F924F925F926F927F928F92E7
:1015D0009F92AF92BF92CF92DF92EF92FF920F93C2
:1015E0001F93DF93CF9300D000D000D0CDB7DEB7EC
:1015F0002224A3C0632D70E03B01660C771C660CAF
:10160000771C8FE794E0680E791EA0E5B0E06A9F32
:1016100040016B9F900C7A9F900C1124840C951CB8
:10162000880C991CEFEFF1E08E0E9F1ED4012D91D6
:101630003C91442737FD4095542FF30180819181DF
:10164000A281B381821B930BA40BB50B8083918382
:10165000A283B383CB01880F991F9E838D83FC01E6
:10166000E956FE4F80810E942D1000D000D0AA279D
:1016700097FDA095BA2FA090A301B090A401CC240F
:10168000B7FCC094DC2CEDB7FEB711821282138236
:101690001482BC01CD0120E030E040E050E0EFEFEB
:1016A000EE2EE3E0FE2E012D112D0E943F11ED8163
:1016B000FE81E156FB4F20813181260F371FD40177
:1016C0002D933C93A901662757FD6095762FF30172
:1016D00080819181A281B381480F591F6A1F7B1FAE
:1016E000D3014D935D936D937C9313970F900F905F
:1016F0000F900F908091A501882391F0ED81FE81DC
:10170000E157FB4FFE83ED83CB01BA0129813A817A
:101710004B815C810E943B18AD81BE812D933C932F
:1017200033948091A701381608F464CF61E070E02B
:1017300080E090E00E948C0F23948091A6012816EF
:1017400098F43324422C55240894411C511CC201A6
:10175000AA2797FDA095BA2F89839A83AB83BC8370
:10176000089441085108DDCF26960FB6F894DEBFE5
:101770000FBECDBFCF91DF911F910F91FF90EF90E2
:10178000DF90CF90BF90AF909F908F907F906F90A1
:101790005F904F903F902F900895FF920F931F936B
:1017A000CF93DF930E94E10A8091A501813009F473
:1017B00041C0813020F0823009F044C03DC07091BA
:1017C000A7018091A60160E000EA10E050E5F52E47
:1017D000C82FD0E010C04D915C911197808191810C
:1017E000841795070CF4CA01918380831296A2177F
:1017F000B30789F76F5F6717D0F4862F90E0809F5B
:10180000D001819FB00D909FB00D1124A150BE4F0B
:101810006F9D900111242C0F3D1F220F331F21506B
:101820003E4FFC01EE0FFF1FE956FB4FE0CF0E9439
:101830007F0808C00E9462070E9493060E94110759
:101840001092A50161E070E080E090E00E948C0FB2
:10185000DF91CF911F910F91FF900895CF92DF926A
:10186000EF92FF920F931F93CF93DF938C01F62E8D
:101870006A01E22EFC01C085D185209789F08C8118
:101880008F1541F4C801BE01A6012E2D0E94D5037B
:1018900080E03CC08D819E81009731F0EC01EFCF5C
:1018A00080E090E09C01E90187E090E00E946114F3
:1018B000DC0111961C921E9212961C9212970097B0
:1018C00011F48FEF23C01496FC9214971296EC92A9
:1018D000129716961C921E921597EF2DF0E0E65681
:1018E000FF4FE4911396EC931397F801808591854F
:1018F000892B19F4B187A08702C0BE83AD83C801CC
:10190000BD01A6012E2D0E94D50381E0DF91CF916C
:101910001F910F91FF90EF90DF90CF900895582F77
:101920009B01742FE82FF0E0EA57FF4F8491882342
:1019300011F121153105F9F0833051F0843059F05F
:10194000823019F4A3ECB1E008C0A0E0B0E005C01B
:10195000ADECB1E002C0A7EDB1E0ED91FC911197C3
:10196000808117968C931797CD01652FA901272F9A
:101970000E942E0C08958FEF08951F9380E00E941F
:101980002A1082EE91E060E142E020E00E94420EE7
:10199000F8941092800010928100109285001092AD
:1019A000840080E19AE79093890080938800809179
:1019B00081008860809381008091810085608093A0
:1019C000810080916F00826080936F00789480E145
:1019D00060E00E944F1080E16FE675E042E050E069
:1019E0000E948F0C87E295E061E070E00E94310F69
:1019F0008093E1018150823050F081E08093E101D9
:101A000087E295E061E070E041E00E94380F1091BC
:101A1000A7019091A601AFE7B4E040E050E020E0DC
:101A200030E060EA70E029C01D921D921D921C9268
:101A30001397F901E157FB4F11821082F901E95622
:101A4000FB4F11821082F901E156FB4F1182108287
:101A5000469FF001479FF00D569FF00D1124E15075
:101A6000FE4F80E003C0119211928F5F8917D8F367
:101A70004F5F5F4F14962E5F3F4F4117A8F21F91A3
:101A800008950F931F938C01FC01868160E00E94F2
:101A90008E1081E090E00E94E50FF801868161E000
:101AA0000E948E1081E090E00E94E50FF80186818F
:101AB00060E00E948E1084E690E00E94E50F1F9186
:101AC0000F910895CF92DF92EF92FF920F931F93A1
:101AD000CF93DF93D82EC92E282F392FC9018C011F
:101AE000C0E0D0E0E62EFF24F801878161E00E948B
:101AF0004F10B7010C2E02C0759567950A94E2F756
:101B00006170F80187810E948E1021960F5F1F4F30
:101B1000C830D10549F78D2D9C2D0E94410DDF91D4
:101B2000CF911F910F91FF90EF90DF90CF9008958C
:101B3000CF92DF92EF92FF920F931F93CF93DF9399
:101B4000D82EC92E282F392FC9018C01C0E0D0E032
:101B5000E62EFF24F801878161E00E944F10B70153
:101B60000C2E02C0759567950A94E2F76170F80132
:101B700087810E948E1021960F5F1F4FC430D105C0
:101B800049F78D2D9C2D0E94410DDF91CF911F9122
:101B90000F91FF90EF90DF90CF9008951F93CF9318
:101BA000DF93EC01162F8C81642F0E948E108D81A3
:101BB0008F3F19F060E00E948E108F8584FF05C072
:101BC000CE01612F0E94620D0EC0612F70E084E093
:101BD000759567958A95E1F7CE010E94980DCE0123
:101BE000612F0E94980DDF91CF911F91089541E0E0
:101BF0000E94CE0D81E090E0089540E00E94CE0D5D
:101C00000895FC016089862F8460808B6C60CF0111
:101C10000E94FD0D0895DF93CF93CDB7DEB72897CF
:101C20000FB6F894DEBF0FBECDBF9C01FE0131960A
:101C3000A7EBB1E088E00D9001928150E1F7F90146
:101C40008389481710F0482F4150E42FF0E0EE0F41
:101C5000FF1FEC0FFD1F8181680F6068C9010E94A2
:101C6000FD0D28960FB6F894DEBF0FBECDBFCF9105
:101C7000DF91089561E00E94FD0D80ED97E00E94E4
:101C8000E50F0895CF93DF93EC01423018F08F8574
:101C900088608F874B8B1C8A222329F0413019F4EE
:101CA0008F8584608F8780E593EC0E94E50F8C819F
:101CB00060E00E948E108E8160E00E948E108D8107
:101CC0008F3F19F060E00E948E106F8564FD1DC08B
:101CD000CE0163E00E94980D84E991E10E94E50F36
:101CE000CE0163E00E94980D84E991E10E94E50F26
:101CF000CE0163E00E94980D86E990E00E94E50F16
:101D0000CE0162E00E94980D16C06062CE010E9472
:101D1000FD0D84E991E10E94E50F6F856062CE01BF
:101D20000E94FD0D86E990E00E94E50F6F856062DC
:101D3000CE010E94FD0D6F856062CE010E94FD0DF7
:101D400084E0888BCE010E94010ECE010E943A0EE3
:101D500082E0898BCE0166E00E94FD0DDF91CF917C
:101D600008956F927F928F92AF92CF92EF920F93DE
:101D70001F93DF93CF93CDB7DEB73C01162F842F8F
:101D8000F301448325830683E782C086A186828689
:101D90009D8593879E8594879F859587988996874B
:101DA00061E00E944F10F30185818F3F19F061E0DF
:101DB0000E944F10F301868161E00E944F101123B1
:101DC00019F0F301178603C080E1F3018787C3018F
:101DD00060E141E020E00E94420ECF91DF911F912F
:101DE0000F91EF90CF90AF908F907F906F9008956C
:101DF0008F92AF92CF92EF920F931F93CF93DF9377
:101E0000DC01362F542F722F102FAE2C8C2C1396F2
:101E10001C921E92129783EB91E011969C938E93E5
:101E200000D000D0EDB7FEB73196CDB7DEB719823E
:101E3000118212821382CD0161E0432F2FEF052F13
:101E4000E72EC12E0E94B10E0F900F900F900F90B1
:101E5000DF91CF911F910F91EF90CF90AF908F9026
:101E60000895F999FECF72BD61BDF89A80B50895C5
:101E7000F999FECF1FBA72BD61BD40BD0FB6F8948F
:101E8000FA9AF99A0FBE08951F920F920FB60F9209
:101E900011242F933F938F939F93AF93BF93809180
:101EA0002C0590912D05A0912E05B0912F05309114
:101EB00030050196A11DB11D232F2D5F2D3720F078
:101EC0002D570196A11DB11D2093300580932C053F
:101ED00090932D05A0932E05B0932F058091280592
:101EE00090912905A0912A05B0912B050196A11D7D
:101EF000B11D8093280590932905A0932A05B093DE
:101F00002B05BF91AF919F918F913F912F910F9092
:101F10000FBE0F901F9018959B01AC017FB7F894EE
:101F20008091280590912905A0912A05B0912B0553
:101F300066B5A89B05C06F3F19F00196A11DB11DA4
:101F40007FBFBA2FA92F982F8827860F911DA11D1B
:101F5000B11D62E0880F991FAA1FBB1F6A95D1F7B8
:101F6000BC012DC0FFB7F8948091280590912905F8
:101F7000A0912A05B0912B05E6B5A89B05C0EF3FBF
:101F800019F00196A11DB11DFFBFBA2FA92F982FDF
:101F900088278E0F911DA11DB11DE2E0880F991FAA
:101FA000AA1FBB1FEA95D1F7861B970B885E93404B
:101FB000C8F2215030404040504068517C4F2115BC
:101FC00031054105510571F60895019739F0880FE3
:101FD000991F880F991F02970197F1F70895789438
:101FE00084B5826084BD84B5816084BD85B582601E
:101FF00085BD85B5816085BDEEE6F0E080818160BC
:102000008083E1E8F0E010828081826080838081BB
:1020100081608083E0E8F0E0808181608083E1EB93
:10202000F0E0808184608083E0EBF0E0808181607B
:102030008083EAE7F0E08081846080838081826031
:10204000808380818160808380818068808310921A
:10205000C10008958093A8010895982F8E3008F04C
:102060009E5097708091A8018295880F880F807C80
:10207000892B80937C0080917A00806480937A0021
:1020800080917A0086FDFCCF209178004091790004
:10209000942F80E030E0282B392BC9010895CF938D
:1020A000DF93482F50E0CA0186569F4FFC013491C0
:1020B0004A575F4FFA018491882369F190E0880FB5
:1020C000991FFC01E859FF4FA591B491FC01EE580E
:1020D000FF4FC591D491662351F42FB7F8948C919A
:1020E000932F909589238C93888189230BC062302C
:1020F00061F42FB7F8948C91932F909589238C934A
:102100008881832B88832FBF06C09FB7F8948C915A
:10211000832B8C939FBFDF91CF910895482F50E080
:10212000CA0182559F4FFC012491CA0186569F4FD8
:10213000FC0194914A575F4FFA013491332309F41B
:1021400040C0222351F1233071F0243028F4213093
:10215000A1F0223011F514C02630B1F02730C1F0C3
:102160002430D9F404C0809180008F7703C080911F
:1021700080008F7D8093800010C084B58F7702C06F
:1021800084B58F7D84BD09C08091B0008F7703C076
:102190008091B0008F7D8093B000E32FF0E0EE0FD0
:1021A000FF1FEE58FF4FA591B4912FB7F894662307
:1021B00021F48C919095892302C08C91892B8C936A
:1021C0002FBF0895CF92DF92EF92FF920F931F934C
:1021D000CF93DF937C016B018A01C0E0D0E00FC098
:1021E000D6016D916D01D701ED91FC910190F081C7
:1021F000E02DC7010995C80FD91F015010400115E6
:10220000110571F7CE01DF91CF911F910F91FF90D2
:10221000EF90DF90CF900895AF92BF92CF92DF9270
:10222000EF92FF920F931F93CF93DF935C016B01AB
:10223000EE24FF24C0E0D0E010C0D501ED91FC9168
:1022400000811181C601BE010E948811682FC5015D
:10225000F8010995E80EF91E2196F6018481958111
:10226000C817D90750F3C701DF91CF911F910F9184
:10227000FF90EF90DF90CF90BF90AF9008952F9296
:102280003F924F925F926F927F928F929F92AF9206
:10229000BF92CF92DF92EF92FF920F931F93DF9343
:1022A000CF93CDB7DEB73B014C0119012A016D89EF
:1022B0007E898F89988D6A197B098C099D09621A1C
:1022C000730A840A950AA40193010E94D317E218A5
:1022D000F30804091509A80197010E943B182A0D6B
:1022E0003B1D4C1D5D1DB901CA01CF91DF911F91AE
:1022F0000F91FF90EF90DF90CF90BF90AF909F90A5
:102300008F907F906F905F904F903F902F900895A7
:10231000FC01848195816817790748F40190F08168
:10232000E02D309721F0E60FF71F8081089580E0BF
:102330000895AF92BF92CF92DF92EF92FF920F93E8
:102340001F93CF93DF93FC015B017A01DB011496AD
:102350002D913C9115972115310559F18481958175
:10236000009739F18217930720F14817590720F099
:102370007C010894E108F10800811181C801CFEFC8
:10238000DFEF6801CE0CDF1C10C0F50160817181A8
:102390000E9450019C01009771F0801B910BE81680
:1023A000F90608F0EC01C9010196C816D90668F7CC
:1023B00002C0CFEFDFEFCE01DF91CF911F910F91E0
:1023C000FF90EF90DF90CF90BF90AF9008950F9364
:1023D0001F93CF93DF93EC018B016F5F7F4F888159
:1023E00099810E949915009711F480E005C09983A6
:1023F00088831B830A8381E0DF91CF911F910F9126
:1024000008952F923F924F925F926F927F928F9298
:102410009F92AF92BF92CF92DF92EF92FF920F9373
:102420001F93CF93DF935C012B014A01DC011496CB
:102430000D911C9115970115110509F4D4C0FB01EC
:10244000C480D580C114D10409F4CDC0DA0114963A
:102450006D907C9015976C187D08FC01E080F180F0
:102460006114710491F01BC0D4016C9111967C91A0
:10247000119714964D915C9115978C2F0E942E0107
:10248000F401E480F580EC0EFD1ED2016D917C918B
:10249000C7010E945001EC01009731F7A4C077FEFC
:1024A00002C067012EC0FB0120803180E8013CC0E2
:1024B0008E010E191F09C601B701A8010E942E0145
:1024C0000C0D1D1DD4016C9111967C9111971496E1
:1024D0004D915C911597C8010E942E01F401C480B2
:1024E000D580C00ED11ED2011496ED90FC901597A8
:1024F000EC0EFD1EF50184819581860D971D958357
:102500008483D2016D917C91C7010E945001EC013E
:10251000009771F6C601B7010E94490164C07B01B2
:10252000EC0CFD1CC60DD71DC701B1010E94500166
:10253000BC010097A1F7C017D10709F454C0F501F9
:10254000828193818C179D0708F044C0C501BE01AC
:102550000E94E7118823F1F546C0C501B201A90127
:102560000E949911EC0197FD3EC0D5016D917C91BF
:102570001197F201848195818C0F9D1F680F791F3F
:1025800014964D915C911597481B590BCB01860D04
:10259000971D0E943701D50114968D919C91159736
:1025A000860D971D15969C938E931497ED91FC9133
:1025B0001197E80FF91F10822D913C912C0F3D1FB0
:1025C000F4016081718144815581C9010E942E010D
:1025D0009E0105C0D50114962D913C91159721506F
:1025E000304037FFBACFDF91CF911F910F91FF900D
:1025F000EF90DF90CF90BF90AF909F908F907F90A3
:102600006F905F904F903F902F900895CF93DF93FE
:10261000EC0188819981892B29F08A819B81861719
:10262000970760F4CE010E94E711882341F08C8166
:102630009D81892B19F4E881F981108281E0DF9175
:10264000CF910895EF92FF920F931F93CF93DF9353
:10265000EC017B016C817D81E114F104C1F0411535
:10266000510599F08A01060F171FB8010E94061341
:10267000882369F0888199812C813D81820F931F85
:10268000B7010E9449011D830C8381E001C080E0F5
:10269000DF91CF911F910F91FF90EF900895EF92EE
:1026A000FF920F931F93DF93CF93CDB7DEB727979A
:1026B0000FB6F894DEBF0FBECDBF7C01CB018E01FB
:1026C0000F5F1F4FB8014AE050E00E946A01F80115
:1026D00001900020E9F73197E01BF10BC701B80129
:1026E000AF010E94221327960FB6F894DEBF0FBEEB
:1026F000CDBFCF91DF911F910F91FF90EF90089583
:10270000EF92FF920F931F93DF93CF9300D000D0EF
:10271000CDB7DEB77C01862F90E08E010F5F1F4F93
:10272000B8014AE050E00E946A01F80101900020DF
:10273000E9F73197E01BF10BC701B801AF010E9427
:1027400022130F900F900F900F90CF91DF911F9158
:102750000F91FF90EF9008956115710511F480E0DD
:102760000895DB010D900020E9F71197A61BB70B28
:10277000AD010E9422130895FB01608171814481A3
:1027800055810E9422130895CF93DF93EC01888135
:102790009981009711F00E940115198218821D82FB
:1027A0001C821B821A82DF91CF910895EF92FF92D3
:1027B0000F931F93CF93DF93EC017B018A01BA0142
:1027C0000E940613882321F4CE010E94C41307C07F
:1027D0001D830C8388819981B7010E944901CE0134
:1027E000DF91CF911F910F91FF90EF900895CF93BC
:1027F000DF93EC01198218821B821A821D821C82CF
:102800001E826115710551F0DB010D900020E9F782
:102810001197A61BB70BAD010E94D613DF91CF9184
:1028200008950F931F93182F092F6115710559F003
:10283000DB010D900020E9F71197A61BB70BAD0146
:102840000E94D61302C00E94C413812F902F1F91A3
:102850000F910895CF93DF93EC01FB018617970743
:1028600061F0608171816115710529F044815581A4
:102870000E94D61302C00E94C413CE01DF91CF91F3
:102880000895FC0111821082138212821582148233
:1028900016820E942A140895FC01808191810E9471
:1028A00001150895CF93DF930E94EF0F0E94BD0C96
:1028B000C0E0D0E00E94CD0B2097E1F30E94000021
:1028C000F9CF0E94641408950F931F93CF93DF9361
:1028D000BC018230910510F462E070E0E0913305B4
:1028E000F0913405A0E0B0E040E050E024C08081E9
:1028F000918186179707D0F08617970771F4828128
:102900009381109729F013969C938E9312972CC065
:10291000909334058093330527C04115510519F074
:102920008417950718F4EF018D01AC01DF01828156
:1029300093819C01F9013097D1F641155105F9F0C9
:10294000CA01861B970B8430910580F48A819B8194
:102950000115110521F0F8019383828304C090933F
:10296000340580933305FE01329645C0FE01E80F21
:10297000F91F619371930297998388833CC080917A
:10298000310590913205892B41F48091AB019091F2
:10299000AC0190933205809331054091AD01509187
:1029A000AE014115510541F44DB75EB78091A901C3
:1029B0009091AA01481B590B2091310530913205A5
:1029C00024173507B0F4CA01821B930B86179707AB
:1029D00080F0AB014E5F5F4F8417950750F0420FB8
:1029E000531F5093320540933105F9016193719360
:1029F00002C0E0E0F0E0CF01DF91CF911F910F9195
:102A00000895CF93DF939C01009709F48FC0EC01E8
:102A100022971B821A8260913305709134056115EB
:102A2000710581F488819981820F931F209131056E
:102A3000309132052817390739F5D0933205C09304
:102A4000310574C0DB0140E050E0AC17BD0708F170
:102A5000BB83AA83FE0121913191E20FF31FAE17D0
:102A6000BF0779F48D919C911197280F391F2E5F24
:102A70003F4F3983288312968D919C9113979B83A6
:102A80008A834115510571F4D0933405C093330501
:102A90004DC012968D919C911397AD01009711F046
:102AA000DC01D3CFDA011396DC93CE931297FA01AF
:102AB00021913191E20FF31FCE17DF0769F488816E
:102AC0009981280F391F2E5F3F4FFA0131832083F0
:102AD0008A819B8193838283E0E0F0E0DB011296A0
:102AE0008D919C911397009719F0BC01FD01F6CFD1
:102AF000AB014E5F5F4FDB018D919C91840F951F61
:102B000020913105309132052817390779F4309733
:102B100029F4109234051092330502C013821282F8
:102B2000425050405093320540933105DF91CF9190
:102B300008956F927F928F929F92AF92BF92CF92A1
:102B4000DF92EF92FF920F931F93CF93DF938C014D
:102B5000009729F4CB010E9464148C01BBC08EEF56
:102B6000E82E8FEFF82EE00EF11E4801860E971E1C
:102B70008E149F0408F4ACC0D7014D915C9111975D
:102B800046175707B8F04530510508F4A3C0CA01ED
:102B900004978617970708F49DC042505040461B83
:102BA000570BF401419351936D937C93CF010E9495
:102BB000011590C05B01A41AB50A3801640E751E98
:102BC000A0913305B0913405CC24DD24E0E0F0E0A1
:102BD00047C0A615B705A9F5CD91DC911197CE0197
:102BE00002968A159B0568F1CE018A199B09029607
:102BF00012962C91129713963C91059758F0F40178
:102C000022833383CA19DB09D183C083D7016D9333
:102C10007C9309C04E5F5F4F4C0F5D1FF7015183DE
:102C20004083C901FC01C114D10431F0D6011396CF
:102C3000FC93EE9312974EC0F0933405E093330566
:102C400049C08D919C911197E817F90708F4FC0190
:102C50006D0112968C91129713969C919C01D9014B
:102C6000109709F0B6CF8091310590913205861505
:102C70009705E9F4E617F707D0F42091AD013091FC
:102C8000AE012115310541F42DB73EB78091A90160
:102C90009091AA01281B390B82169306C8F49092D2
:102CA000320580923105F7017183608313C0CB0137
:102CB0000E946414EC01009759F0D7014D915C918A
:102CC000B8010E942E01C8010E9401158E0102C0A8
:102CD00000E010E0C801DF91CF911F910F91FF90AC
:102CE000EF90DF90CF90BF90AF909F908F907F90AC
:102CF0006F9008950CD0BAC0B2D040F0A9D030F097
:102D000021F45F3F19F09BC05111E4C09EC0BFD0B9
:102D100098F39923C9F35523B1F3951B550BBB27A2
:102D2000AA2762177307840738F09F5F5F4F220F4F
:102D3000331F441FAA1FA9F333D00E2E3AF0E0E848
:102D400030D091505040E695001CCAF729D0FE2F94
:102D500027D0660F771F881FBB1F26173707480726
:102D6000AB07B0E809F0BB0B802DBF01FF279358DC
:102D70005F4F2AF09E3F510568F061C0ABC05F3FD6
:102D8000ECF3983EDCF3869577956795B795F795C4
:102D90009F5FC9F7880F911D9695879597F90895BC
:102DA000E1E0660F771F881FBB1F62177307840758
:102DB000BA0720F0621B730B840BBA0BEE1F88F767
:102DC000E0950895E89409C097FB3EF490958095AE
:102DD000709561957F4F8F4F9F4F9923A9F0F92FE1
:102DE00096E9BB279395F695879577956795B7955F
:102DF000F111F8CFFAF4BB0F11F460FF1BC06F5F45
:102E00007F4F8F4F9F4F16C0882311F096E911C056
:102E1000772321F09EE8872F762F05C0662371F077
:102E200096E8862F70E060E02AF09A95660F771F8B
:102E3000881FDAF7880F9695879597F9089597F97F
:102E40009F6780E870E060E008959FEF80EC089550
:102E500000240A9416161706180609060895002479
:102E60000A9412161306140605060895092E0394F3
:102E7000000C11F4882352F0BB0F40F4BF2B11F467
:102E800060FF04C06F5F7F4F8F4F9F4F089557FDC6
:102E90009058440F551F59F05F3F71F04795880FC8
:102EA00097FB991F61F09F3F79F08795089512165F
:102EB00013061406551FF2CF4695F1DF08C016160B
:102EC00017061806991FF1CF8695710561050894BC
:102ED0000895E894BB2766277727CB0197F90895D3
:102EE0000BD0C4CFB5DF28F0BADF18F0952309F076
:102EF000A6CFABCF1124EECFCADFA0F3959FD1F3BD
:102F0000950F50E0551F629FF001729FBB27F00D97
:102F1000B11D639FAA27F00DB11DAA1F649F6627EC
:102F2000B00DA11D661F829F2227B00DA11D621F3B
:102F3000739FB00DA11D621F839FA00D611D221FF5
:102F4000749F3327A00D611D231F849F600D211DD9
:102F5000822F762F6A2F11249F5750408AF0E1F07C
:102F600088234AF0EE0FFF1FBB1F661F771F881FC5
:102F700091505040A9F79E3F510570F060CFAACF05
:102F80005F3FECF3983EDCF3869577956795B795B0
:102F9000F795E7959F5FC1F7FE2B880F911D9695DA
:102FA000879597F90895629FD001739FF001829FE2
:102FB000E00DF11D649FE00DF11D929FF00D839FC8
:102FC000F00D749FF00D659FF00D9927729FB00D65
:102FD000E11DF91F639FB00DE11DF91FBD01CF0178
:102FE00011240895AA1BBB1B51E107C0AA1FBB1FD8
:102FF000A617B70710F0A61BB70B881F991F5A9585
:10300000A9F780959095BC01CD01089597FB092EF5
:1030100007260AD077FD04D0E5DF06D000201AF499
:10302000709561957F4F0895F6F7909581959F4F24
:103030000895A1E21A2EAA1BBB1BFD010DC0AA1FF9
:10304000BB1FEE1FFF1FA217B307E407F50720F011
:10305000A21BB30BE40BF50B661F771F881F991F8C
:103060001A9469F760957095809590959B01AC01D5
:10307000BD01CF01089597FB092E05260ED057FDFF
:1030800004D0D7DF0AD0001C38F450954095309515
:1030900021953F4F4F4F5F4F0895F6F790958095DC
:1030A000709561957F4F8F4F9F4F08952F923F925C
:1030B0004F925F926F927F928F929F92AF92BF9248
:1030C000CF92DF92EF92FF920F931F93CF93DF93F4
:1030D000CDB7DEB7CA1BDB0B0FB6F894DEBF0FBE51
:1030E000CDBF09942A88398848885F846E847D849E
:1030F0008C849B84AA84B984C884DF80EE80FD80A0
:103100000C811B81AA81B981CE0FD11D0FB6F89415
:10311000DEBF0FBECDBFED010895EE0FFF1F05907E
:10312000F491E02D099411E0CEEBD1E004C0FE0152
:103130000E948F182296C03CD107C9F7F894FFCFA0
:103140004F726967696E616C2056325233372020A6
:10315000004469676974616C4361726253796E639C
:103160002000437931204379332043793520525070
:103170004D20004379322043793420437936206E44
:103180006E6E200043796C696E64657273203D2019
:103190000043616C696272617465203D200043796F
:1031A0003100437932004379330043793400437965
:1031B00035004379360052504D006E6E6E0031700E
:1031C00074203D3D0020696E636865732048670088
:1031D0000020002020200002000500010004000063
:1031E000000300510101500401800035050000007A
:1031F000000000F70DE21000004000140054000031
:00000001FF
