:100000000C94E0000C945E0D0C948B0D0C94080184
:100010000C9408010C9408010C9408010C9408013C
:100020000C9408010C9408010C9408010C94E90349
:100030000C9408010C9408010C9408010C9408011C
:100040000C94B80D0C9408010C9408010C94080150
:100050000C9408010C9408010C9408010C940801FC
:100060000C9408010C9408010000000024002700F3
:100070002A0000000000250028002B0000000000DE
:1000800023002600290004040404040404040202DA
:100090000202020203030303030301020408102007
:1000A0004080010204081020010204081020000012
:1000B0000007000201000003040600000000000029
:1000C000000000407A10F35A00A0724E1809001088
:1000D000A5D4E80000E87648170000E40B540200BD
:1000E00000CA9A3B000000E1F505000080969800E8
:1000F000000040420F000000A08601000000102711
:1001000000000000E80300000000640000000000A0
:100110000A00000000000100000000002C76D888D2
:10012000DC674F0823DFC1DFAE59E1B1B796E5E3E5
:10013000E453C63AE651997696E8E6C28426EB89FE
:100140008C9B62ED407C6FFCEFBC9C9F40F2BAA59B
:100150006FA5F490055A2AF75C936B6CF9676DC133
:100160001BFCE0E40D47FEF520E6B500D0ED902E37
:100170000300943577050080841E080000204E0A95
:10018000000000C80C333333330F986E12831141D3
:10019000EF8D2114893BE65516CFFEE6DB18D1849E
:1001A0004B381BF77C1D901DA4BBE42420328472C5
:1001B0005E228100C9F124ECA1E53D2743043C0403
:1001C00011241FBECFEFD8E0DEBFCDBF11E0A0E00D
:1001D000B1E0E8EAFEE202C005900D92A839B1074D
:1001E000D9F715E0A8E9B1E001C01D92AC31B10723
:1001F000E1F711E0CEEBD1E004C02297FE010E94AE
:100200004317CC3BD107C9F70E94D9130C942B019B
:100210000C940000EF92FF920F931F93F22FF02E99
:1002200047FD02C0E4E001C0E4E1242F332727FDAD
:10023000309537FF03C0309521953F4F4F2D512FFB
:100240000F2FEE2E0E948B018F2D912F1F910F915A
:10025000FF90EF900895F8940C944717FB01DC0190
:1002600002C001900D9241505040D8F70895681790
:10027000790768F4FB01DC01E40FF51FA40FB51F3B
:1002800002C002900E9241505040D8F708950C944D
:100290002E01FB01DC0101900D920020E1F7089591
:1002A000FB0151915523A9F0BF01DC014D91451788
:1002B0004111E1F759F4CD010190002049F04D9131
:1002C00040154111C9F3FB014111EFCF81E090E0EE
:1002D00001970895FB019F01E8944230C4F0453234
:1002E000B4F44A3029F497FB1EF4909581959F4F02
:1002F000642F77270E94A616805D8A330CF0895DF3
:100300008193CB010097A1F716F45DE2519310821F
:10031000C9010C94C503A9E0B0E0E1E9F1E00C9457
:100320000E176A01122FA02EBE2C2BE3201718F4F3
:100330002CE3922E02C0902E9394AE014F5F5F4F3C
:1003400027E0092D0E94ED02BC018981E82EFF24DF
:10035000C70189709070019711F4ADE209C0B1FE38
:1003600002C0ABE205C0B0FC02C0A0E001C0A0E248
:10037000E3FE3BC0AA2311F423E001C024E02117CF
:1003800010F020E002C0121B212FEB2CB4FE02C0A3
:10039000322F0AC0F601322F80E202C08193315021
:1003A0003323E1F7C20ED11CAA2319F0F601A19361
:1003B0006F01F6013196E2FE05C09EE4D6019C93E2
:1003C00081E404C09EE6D6019C9381E611968C934D
:1003D00091833296DF01832F90E202C09D9381507A
:1003E0008823E1F7E30FF11D40C0E2FE42C0AA23DB
:1003F00011F423E001C024E0211710F020E002C036
:10040000121B212FEB2CB4FE02C0922F0AC0F60162
:10041000922F80E202C0819391509923E1F7C20E9E
:10042000D11CAA2319F0F601A1936F01F6013196B0
:10043000E2FE08C089E4D6018C938EE411968C9379
:1004400086E407C089E6D6018C938EE611968C93DC
:1004500086E681833296DF01892F20E202C02D9348
:1004600081508823E1F7E90FF11D10822EEF3FEF55
:10047000AFC0161617061CF041E050E003C0AB01F8
:100480004F5F5F4FAA2019F480E090E003C08A2DEF
:1004900090E0019620E030E0AA2311F021E030E066
:1004A000240F351F280F391F812F90E02817390797
:1004B00014F020E002C0121B212F4B2D50E0CA0186
:1004C00080719070B4FC0DC0B3FC0BC0F601322FEC
:1004D00040E202C0419331503323E1F7C20ED11CF8
:1004E00001C0322FAA2319F0F601A1936F01892BC5
:1004F00011F0132F0AC0F601132F80E302C081937D
:1005000011501123E1F7C30ED11C092D060FBA803B
:1005100090E1892E912C8E209F20E4FE04C0F1E30F
:10052000BF1609F40150101614F001E003C00930A1
:1005300008F008E09B0177FF02C020E030E0CB012B
:100540000196821B930BFE013196E80FF91F8EE294
:10055000F82E3B01601A71088A2D90E04427552738
:10056000481B590B8FEF2F3F380719F4D601FD9226
:100570006D01621773072CF06216730614F4808104
:1005800001C080E32150304031962417350724F014
:10059000D6018D936D01E6CF2617370749F4B5E3F1
:1005A000BB1528F0BB1621F48114910409F481E3F2
:1005B000F6018193D601812F90E202C09C93815075
:1005C00011968823D9F7E10FF11D108220E030E069
:1005D000C9012996EEE00C942A17283008F027E08C
:1005E0003327DA01990F311D87FD9160009661056F
:1005F000710539F432602E5F3D9330E32A95E1F7BF
:1006000008959F3F30F080387105610509F03C5F27
:100610003C5F3D93913008F08068911DDF93CF934C
:100620001F930F93FF92EF92192F987F9695E92FC2
:1006300096959695E90FFF27E45EFE4F992733279D
:10064000EE24FF24A701E70105900894079428F4FD
:10065000360FE71EF81E491F511D660F771F881FB2
:10066000991F0694A1F70590079428F4E70EF81E49
:10067000491F561FC11D770F881F991F661F0694BB
:10068000A1F70590079428F4F80E491F561FC71FBD
:10069000D11D880F991F661F771F0694A1F705903B
:1006A000079420F4490F561FC71FD81F990F661FC4
:1006B000771F881F0694A9F784911095177041F051
:1006C000D695C79557954795F794E7941A95C1F72E
:1006D000E2ECF0E068941590159135916591959153
:1006E00005907FE27395E118F10A430B560BC90B95
:1006F000D009C0F7E10CF11E431F561FC91FD01DC2
:100700007EF4703311F48A95E6CFE894015030F00E
:10071000080F0AF40027021708F4202F2395022F50
:100720007A3328F079E37D932A95E9F710C07D9319
:100730002A9589F606949795679537951795179496
:10074000E118F10A430B560BC90BD00998F0239519
:100750007E9173957A3308F070E37C932013B8F799
:100760007E9170617D9330F0839571E37D9370E3AA
:100770002A95E1F71124EF90FF900F911F91CF91EF
:10078000DF91992787FD90950895DC01FC01672F83
:1007900071917723E1F7329704C07C916D93708358
:1007A0006291AE17BF07C8F308958091AE01909192
:1007B000AF01A091B001B091B1010196A11DB11D91
:1007C0008093AE019093AF01A093B001B093B101BB
:1007D00008951F920F920FB60F9211248F939F933B
:1007E000AF93BF938091AE019091AF01A091B00102
:1007F000B091B1018093B2019093B301A093B40181
:10080000B093B5011092AE011092AF011092B001F9
:100810001092B101BF91AF919F918F910F900FBE38
:100820000F901F901895CF92EF920F938130910502
:10083000B1F46F5F7F4FE1F489E991E068E049E04E
:100840002AE00BE05CE0E52E3DE0C32E0E94EF0CB9
:100850008EEF94E064E070E00E94FB0A09C0892BEF
:1008600039F46F5F7F4F21F48EEF94E00E94F50A18
:100870000F91EF90CF90089580E090E06FEF7FEFC1
:100880000E941304089581E090E06FEF7FEF0E94D3
:1008900013040895EF92FF920F931F93DF93CF936A
:1008A000CDB7DEB727970FB6F894DEBF0FBECDBF2A
:1008B0007E010894E11CF11CC70160E071E00E9418
:1008C000A01309E911E0C8010E94310CC80160E0E1
:1008D00040E00E94020CC801B7010E94B510C70198
:1008E00060E171E00E94BA13C80160E041E00E943B
:1008F000020CC801B7010E94B51068EE73E080E0F9
:1009000090E00E94000EC7010E94D31327960FB6F5
:10091000F894DEBF0FBECDBFCF91DF911F910F9135
:10092000FF90EF900895AF92BF92CF92DF92EF9237
:10093000FF920F931F93DF93CF93CDB7DEB76897E6
:100940000FB6F894DEBF0FBECDBF69E9A62E61E0F9
:10095000B62EC5010E94310CC50160E040E00E9446
:10096000020C60917B0170917C01882777FD809556
:10097000982F0E9498159B01AC0166E87AED87E0FC
:1009800092E40E942E157B018C016E010894C11C1B
:10099000D11CC60160E271E00E94A013B701C8013A
:1009A00047E022E08E01015F1F4F0E940A01BC0157
:1009B0008E01085F1F4FC8010E94A013C601B80135
:1009C0000E946513C501B6010E94B510C50160E023
:1009D00041E00E94020CC60167E271E00E94BA1376
:1009E000C501B6010E94B51068EE73E080E090E0AA
:1009F0000E94000EC8010E94D313C6010E94D313A7
:100A000068960FB6F894DEBF0FBECDBFCF91DF91D1
:100A10001F910F91FF90EF90DF90CF90BF90AF901C
:100A20000895CF92DF92EF92FF920F931F93DF937F
:100A3000CF93CDB7DEB727970FB6F894DEBF0FBEC2
:100A4000CDBFCE01019662E371E00E94A0136091D8
:100A50007F01E6EECE2EE4E0DE2E860140E050E09F
:100A6000262F30E0220F331F2C0D3D1D06C0D8016C
:100A70008D919D918D01480F591F02171307B9F7EA
:100A8000CA0170E00E94BA167B01E6EFF4E009C0EB
:100A9000D6018D919D916D019701281B390B2193F2
:100AA0003193C016D106A1F789E991E00E94310C7B
:100AB00089E991E060E040E00E94020C8E010F5F46
:100AC0001F4FC80163E371E00E94BA13C80160912F
:100AD0007F010E94291389E991E0B8010E94B510B5
:100AE00089E991E060E041E00E94020CC80160E405
:100AF00071E00E94BA13C801B7010E94F81289E997
:100B000091E0B8010E94B51068EE73E080E090E0DB
:100B10000E94000E89E991E00E94310C89E991E080
:100B200060E040E00E94020CC80162E371E00E94B4
:100B3000BA136091F6047091F704C8010E94F8128C
:100B4000C8016DE471E00E9455136091FA04709140
:100B5000FB04C8010E94F812C8016DE471E00E9414
:100B600055136091FE047091FF04C8010E94F812B1
:100B700089E991E0B8010E94B51089E991E060E04F
:100B800041E00E94020CC80162E371E00E94BA13C6
:100B90006091F8047091F904C8010E94F812C8012C
:100BA0006DE471E00E9455136091FC047091FD04A6
:100BB000C8010E94F812C8016DE471E00E9455134B
:100BC0006091000570910105C8010E94F81289E941
:100BD00091E0B8010E94B51068EE73E080E090E00B
:100BE0000E94000EC8010E94D31327960FB6F894F6
:100BF000DEBF0FBECDBFCF91DF911F910F91FF9050
:100C0000EF90DF90CF9008956F927F928F929F9296
:100C1000AF92BF92CF92DF92EF92FF920F931F930A
:100C2000DF93CF93CDB7DEB7C659D0400FB6F89457
:100C3000DEBF0FBECDBFCE01019662E371E00E9420
:100C4000A013CE01089662E371E00E94A013CE01CA
:100C50000F9662E371E00E94A01364EF71E080E000
:100C600090E00E94000E6091B2017091B3018091FA
:100C7000B4019091B5010E949615AB01BC018EEFB5
:100C800094E00E94740A8EEF94E00E94CE0A20E065
:100C900030E040EF51E40E9424164B015C0160916A
:100CA0009801623068F070E080E090E00E94961554
:100CB0009B01AC01C501B4010E942E154B015C01E2
:100CC00089E991E00E94310CCE01019660E071E06B
:100CD0000E94BA13A8E0CA2ED12CCC0EDD1EC6018C
:100CE00060E171E00E94BA1380917F01843009F4C1
:100CF0006FC0853038F4823009F4EDC0833009F0DC
:100D00000CC1C7C0853021F1863009F006C18E01C3
:100D1000015F1F4FC80162E371E00E94BA13609146
:100D2000F8047091F904C8010E94F812F6E1EF2E60
:100D3000F12CEC0EFD1EC7016FE471E00E94A013C0
:100D4000C601B701A8010E94AA11C7010E94D313CE
:100D5000EDE1EE2EF12CEC0EFD1EC7016FE471E00B
:100D60000E94A0138E010C5D1F4FC80162E371E069
:100D70000E94A013CE010896B701A8010E94AA11F3
:100D8000C8010E94D313C7010E94D3137FE0E72E4E
:100D9000F12CEC0EFD1EC70162E371E00E94BA1354
:100DA0006091F6047091F704C7010E94F8128E0159
:100DB000055D1F4FC80163E571E00E94A013CE01DD
:100DC0000196B801A7010E94AA11C8010E94D3137D
:100DD00062E3E62EF12CEC0EFD1EC7016FE471E01C
:100DE0000E94A0138E01075C1F4FC80162E371E0EF
:100DF0000E94A01358E0C52ED12CCC0EDD1EC601DA
:100E0000B701A8010E94AA11C8010E94D313C7010B
:100E10000E94D31340E4E42EF12CEC0EFD1EC7011A
:100E200063E571E00E94A0138E01095B1F4FC801AA
:100E300062E371E00E94A013CE010196B701A80100
:100E40000E94AA11C8010E94D313C7010E94D313A4
:100E50003FE0E32EF12CEC0EFD1EC70162E371E0D2
:100E60000E94BA136091F4047091F504C7010E94C6
:100E7000F8128E01025B1F4FC80167E571E00E9406
:100E8000A013C601B801A7010E94AA11C8010E94BF
:100E9000D3138E01015F1F4FC80162E371E00E940E
:100EA000BA136091F2047091F304C8010E94F81221
:100EB00025E5E22EF12CEC0EFD1EC7016BE571E07D
:100EC0000E94A013CE010196B701A8010E94AA11A9
:100ED000C7010E94D3138E01015F1F4FC80162E357
:100EE00071E00E94BA136091F0047091F104C8019E
:100EF0000E94F8129CE5E92EF12CEC0EFD1EC701B4
:100F00006FE571E00E94A013CE010896B701A80119
:100F10000E94AA11C7010E94D3138FE0E82EF12C82
:100F2000EC0EFD1EC70162E371E00E94BA136091EE
:100F3000EE047091EF04C7010E94F8128E010D5962
:100F40001F4FC80163E671E00E94A0136E01089470
:100F5000C11CD11CC601B801A7010E94AA11C80179
:100F60000E94D3138091B2019091B301A091B4017A
:100F7000B091B50108E0602E712C6C0E7D1E0097BB
:100F8000A105B10509F1C70162E371E00E94BA133E
:100F9000C501B40143E020E08E0103571F4F0E94BA
:100FA0000A01BC01C7010E9455138E0106591F4F4B
:100FB000C80167E671E00E94A013C301B801A70150
:100FC0000E94AA11C80138C011E7E12EF12CEC0EE5
:100FD000FD1EC7016BE671E00E94A0138E01085848
:100FE0001F4FC80162E371E00E94A013C601B70160
:100FF000A8010E94AA11C8010E94D313C7010E9430
:10100000D313BFE7EB2EF12CEC0EFD1EC70167E6F4
:1010100071E00E94A0138E010A571F4FC80162E3BE
:1010200071E00E94A013C301B701A8010E94AA1198
:10103000C8010E94D313C7010E94D31389E991E02C
:1010400060E040E00E94020C89E991E0BE016F5F20
:101050007F4F0E94B51089E991E060E041E00E9475
:10106000020C89E991E0BE01685F7F4F0E94B510D4
:1010700080917F01EEEEF4E090E0880F991F8E0FD3
:101080009F1F02C011921192E817F907D9F7CE01FC
:101090000F960E94D313CE0108960E94D313CE015F
:1010A00001960E94D313CA56DF4F0FB6F894DEBFE5
:1010B0000FBECDBFCF91DF911F910F91FF90EF90A9
:1010C000DF90CF90BF90AF909F908F907F906F9068
:1010D00008952F923F924F925F926F927F928F92DC
:1010E0009F92AF92BF92CF92DF92EF92FF920F93B7
:1010F0001F93DF93CF9300D000D000D0CDB7DEB7E1
:101100002224A3C0632D70E03B01660C771C660CA3
:10111000771C86ED94E0680E791EA4E6B0E06A9F25
:1011200040016B9F900C7A9F900C1124840C951CAD
:10113000880C991CE6EBF1E08E0E9F1ED4012D91D8
:101140003C91442737FD4095542FF30180819181D4
:10115000A281B381821B930BA40BB50B8083918377
:10116000A283B383CB01880F991F9E838D83FC01DB
:10117000E159FE4F80810E94A10E00D000D0AA2725
:1011800097FDA095BA2FA0907B01B0907C01CC2454
:10119000B7FCC094DC2CEDB7FEB71182128213822B
:1011A0001482BC01CD0120E030E040E050E0BFEF10
:1011B000EB2EB3E0FB2E012D112D0E94E810ED81E6
:1011C000FE81EA50FB4F20813181260F371FD40169
:1011D0002D933C93A901662757FD6095762FF30167
:1011E00080819181A281B381480F591F6A1F7B1FA3
:1011F000D3014D935D936D937C9313970F900F9054
:101200000F900F9080917D01882391F0ED81FE81F8
:10121000EA51FB4FFE83ED83CB01BA0129813A816C
:101220004B815C810E94EF16AD81BE812D933C9372
:10123000339480917F01381608F464CF61E070E048
:1012400080E090E00E94000E239480917E01281699
:1012500098F43324422C55240894411C511CC2019B
:10126000AA2797FDA095BA2F89839A83AB83BC8365
:10127000089441085108DDCF26960FB6F894DEBFDA
:101280000FBECDBFCF91DF911F910F91FF90EF90D7
:10129000DF90CF90BF90AF909F908F907F906F9096
:1012A0005F904F903F902F900895FF920F931F9360
:1012B000CF93DF930E94690880917D01813009F40A
:1012C00041C0813020F0823009F044C03DC07091AF
:1012D0007F0180917E0160E008EC10E054E6F52E7D
:1012E000C82FD0E010C04D915C9111978081918101
:1012F000841795070CF4CA01918380831296A21774
:10130000B30789F76F5F6717D0F4862F90E0809F4F
:10131000D001819FB00D909FB00D1124AA54BE4FF3
:101320006F9D900111242C0F3D1F220F331F2A5453
:101330003E4FFC01EE0FFF1FE251FB4FE0CF0E943A
:10134000040608C00E9411050E9493040E944A04EA
:1013500010927D0161E070E080E090E00E94000E5C
:10136000DF91CF911F910F91FF9008951F9380E01F
:101370000E949E0E89E991E060E142E020E00E9437
:10138000390C8EEF94E00E94420AF894109280008B
:1013900010928100109285001092840080E19AE7FB
:1013A0009093890080938800809181008860809369
:1013B00081008091810085608093810080916F0021
:1013C000826080936F00789483E060E00E94C30E97
:1013D00083E061E00E94020F81E065ED73E042E08E
:1013E00050E00E943B0D8AE095E061E070E00E94D1
:1013F000280D809398018150823050F081E08093D5
:1014000098018AE095E061E070E041E00E942F0DD4
:1014100010917F0190917E01A6EDB4E040E050E094
:1014200020E030E068EC70E029C01D921D921D9212
:101430001C921397F901EA51FB4F11821082F901B6
:10144000E251FB4F11821082F901EA50FB4F1182E9
:101450001082469FF001479FF00D569FF00D11241A
:10146000EA54FE4F80E003C0119211928F5F8917FA
:10147000D8F34F5F5F4F14962E5F3F4F4117A8F28E
:101480001F910895EF92FF920F931F93CF93DF93D5
:10149000EC011B821A821D821C8280E090E0A0E099
:1014A000B0E08E839F83A887B98740E050E020E0BA
:1014B00030E07C018D010CC0EA85FB85E20FF31F53
:1014C000E082F182028313834F5F5F4F2C5F3F4FB7
:1014D00088819981481759077CF3DF91CF911F913B
:1014E0000F91FF90EF900895AF92BF92CF92DF924D
:1014F000EF92FF920F931F93CF93DF93EC015A016A
:101500006B01EC80FD80C701880F991F880F991F20
:101510000A851B85080F191F6E817F818885998533
:10152000F80120813181428153810E94C9146E8368
:101530007F8388879987F801A082B182C282D38293
:101540006E817F8188859985A60195010E94CA14C4
:101550006E837F83888799870894E11CF11CFD8244
:10156000EC8288819981E816F90611F41D821C82AB
:101570002A813B81888199812817390724F42F5FBC
:101580003F4F3B832A83DF91CF911F910F91FF90B3
:10159000EF90DF90CF90BF90AF900895CF93DF93FF
:1015A000EC012A813B812115310529F4E0E070E04E
:1015B00080E060E011C0B901882777FD8095982F01
:1015C0000E9498159B01AC016E817F818885998569
:1015D0000E942E15E62F692F2E2F372F482F562FBA
:1015E000B901CA01DF91CF910895FC0182859385ED
:1015F0000E94F30F0895EF92FF920F931F93CF93E2
:10160000DF93EC01CB0179836883880F991F880FE2
:10161000991F0E94560F8A879B871B821A821D8200
:101620001C8280E090E0A0E0B0E08E839F83A887DA
:10163000B98740E050E020E030E07C018D010CC033
:10164000EA85FB85E20FF31FE082F18202831383B8
:101650004F5F5F4F2C5F3F4F888199814817590733
:101660007CF3DF91CF911F910F91FF90EF90089540
:101670000F931F938C01FC01868160E00E94020F92
:1016800081E090E00E94590EF801868161E00E949D
:10169000020F81E090E00E94590EF801868160E01F
:1016A0000E94020F84E690E00E94590E1F910F9154
:1016B0000895CF92DF92EF92FF920F931F93CF93F3
:1016C000DF93D82EC92E282F392FC9018C01C0E0F5
:1016D000D0E0E62EFF24F801878161E00E94C30E6E
:1016E000B7010C2E02C0759567950A94E2F76170F8
:1016F000F80187810E94020F21960F5F1F4FC830AB
:10170000D10549F78D2D9C2D0E94380BDF91CF918B
:101710001F910F91FF90EF90DF90CF900895CF929F
:10172000DF92EF92FF920F931F93CF93DF93D82E08
:10173000C92E282F392FC9018C01C0E0D0E0E62E38
:10174000FF24F801878161E00E94C30EB7010C2ECF
:1017500002C0759567950A94E2F76170F801878178
:101760000E94020F21960F5F1F4FC430D10549F729
:101770008D2D9C2D0E94380BDF91CF911F910F91E1
:10178000FF90EF90DF90CF9008951F93CF93DF935A
:10179000EC01162F8C81642F0E94020F8D818F3FE8
:1017A00019F060E00E94020F8F8584FF05C0CE0112
:1017B000612F0E94590B0EC0612F70E084E0759577
:1017C00067958A95E1F7CE010E948F0BCE01612FBC
:1017D0000E948F0BDF91CF911F91089541E00E94ED
:1017E000C50B81E090E0089540E00E94C50B08958C
:1017F000FC016089862F8460808B6C60CF010E9421
:10180000F40B0895DF93CF93CDB7DEB728970FB6CB
:10181000F894DEBF0FBECDBF9C01FE013196AFE84C
:10182000B1E088E00D9001928150E1F7F9018389E0
:10183000481710F0482F4150E42FF0E0EE0FFF1F43
:10184000EC0FFD1F8181680F6068C9010E94F40BD5
:1018500028960FB6F894DEBF0FBECDBFCF91DF91B3
:10186000089561E00E94F40B80ED97E00E94590E0C
:101870000895CF93DF93EC01423018F08F85886094
:101880008F874B8B1C8A222329F0413019F48F85D6
:1018900084608F8780E593EC0E94590E8C8160E014
:1018A0000E94020F8E8160E00E94020F8D818F3FA7
:1018B00019F060E00E94020F6F8564FD1DC0CE012B
:1018C00063E00E948F0B84E991E10E94590ECE01E2
:1018D00063E00E948F0B84E991E10E94590ECE01D2
:1018E00063E00E948F0B86E990E00E94590ECE01C2
:1018F00062E00E948F0B16C06062CE010E94F40B62
:1019000084E991E10E94590E6F856062CE010E94C8
:10191000F40B86E990E00E94590E6F856062CE015B
:101920000E94F40B6F856062CE010E94F40B84E08C
:10193000888BCE010E94F80BCE010E94310C82E010
:10194000898BCE0166E00E94F40BDF91CF91089560
:101950006F927F928F92AF92CF92EF920F931F93DD
:10196000DF93CF93CDB7DEB73C01162F842FF30161
:10197000448325830683E782C086A18682869D856F
:1019800093879E8594879F8595879889968761E040
:101990000E94C30EF30185818F3F19F061E00E9420
:1019A000C30EF301868161E00E94C30E112319F07A
:1019B000F301178603C080E1F3018787C30160E16B
:1019C00041E020E00E94390CCF91DF911F910F91EF
:1019D000EF90CF90AF908F907F906F9008958F92FF
:1019E000AF92CF92EF920F931F93CF93DF93DC01CF
:1019F000362F542F722F102FAE2C8C2C13961C9236
:101A00001E9212978BE891E011969C938E9300D0D2
:101A100000D0EDB7FEB73196CDB7DEB7198211828F
:101A200012821382CD0161E0432F2FEF052FE72EA5
:101A3000C12E0E94A80C0F900F900F900F90DF9175
:101A4000CF911F910F91EF90CF90AF908F9008950D
:101A5000F999FECF72BD61BDF89A80B50895F999E4
:101A6000FECF1FBA72BD61BD40BD0FB6F894FA9AA1
:101A7000F99A0FBE0895823000F5E82FF0E0EE0FDE
:101A8000FF1FE55FFA4F71836083882319F081306F
:101A9000A1F408C0809169008C7F842B8093690039
:101AA000E89A089580916900440F551F440F551F0F
:101AB000837F842B80936900E99A08951F920F9287
:101AC0000FB60F9211242F933F934F935F936F9311
:101AD0007F938F939F93AF93BF93EF93FF938091E7
:101AE0000B0590910C05892B29F0E0910B05F091E5
:101AF0000C050995FF91EF91BF91AF919F918F9147
:101B00007F916F915F914F913F912F910F900FBEF9
:101B10000F901F9018951F920F920FB60F921124DD
:101B20002F933F934F935F936F937F938F939F93E5
:101B3000AF93BF93EF93FF9380910D0590910E05A6
:101B4000892B29F0E0910D05F0910E050995FF9183
:101B5000EF91BF91AF919F918F917F916F915F9125
:101B60004F913F912F910F900FBE0F901F9018959E
:101B70001F920F920FB60F9211242F933F938F93C2
:101B80009F93AF93BF938091130590911405A091FB
:101B90001505B0911605309117050196A11DB11DCF
:101BA000232F2D5F2D3720F02D570196A11DB11D3C
:101BB000209317058093130590931405A0931505A2
:101BC000B093160580910F0590911005A091110515
:101BD000B09112050196A11DB11D80930F05909340
:101BE0001005A0931105B0931205BF91AF919F917D
:101BF0008F913F912F910F900FBE0F901F901895CE
:101C00009B01AC017FB7F89480910F05909110056E
:101C1000A0911105B091120566B5A89B05C06F3F54
:101C200019F00196A11DB11D7FBFBA2FA92F982FC2
:101C30008827860F911DA11DB11D62E0880F991F95
:101C4000AA1FBB1F6A95D1F7BC012DC0FFB7F8943E
:101C500080910F0590911005A0911105B09112058A
:101C6000E6B5A89B05C0EF3F19F00196A11DB11D77
:101C7000FFBFBA2FA92F982F88278E0F911DA11D66
:101C8000B11DE2E0880F991FAA1FBB1FEA95D1F78B
:101C9000861B970B885E9340C8F22150304040402D
:101CA000504068517C4F211531054105510571F6B1
:101CB0000895019739F0880F991F880F991F02978F
:101CC0000197F1F70895789484B5826084BD84B556
:101CD000816084BD85B5826085BD85B5816085BD27
:101CE000EEE6F0E0808181608083E1E8F0E0108240
:101CF000808182608083808181608083E0E8F0E081
:101D0000808181608083E1EBF0E08081846080836A
:101D1000E0EBF0E0808181608083EAE7F0E08081A1
:101D20008460808380818260808380818160808301
:101D30008081806880831092C10008958093800123
:101D40000895982F8E3008F09E50977080918001F2
:101D50008295880F880F807C892B80937C008091EE
:101D60007A00806480937A0080917A0086FDFCCFAF
:101D70002091780040917900942F80E030E0282B6A
:101D8000392BC9010895CF93DF93482F50E0CA0142
:101D900086569F4FFC0134914A575F4FFA01849158
:101DA000882369F190E0880F991FFC01E859FF4FE3
:101DB000A591B491FC01EE58FF4FC591D4916623D3
:101DC00051F42FB7F8948C91932F909589238C938D
:101DD000888189230BC0623061F42FB7F8948C910D
:101DE000932F909589238C938881832B88832FBF91
:101DF00006C09FB7F8948C91832B8C939FBFDF9183
:101E0000CF910895482F50E0CA0182559F4FFC01A1
:101E10002491CA0186569F4FFC0194914A575F4F07
:101E2000FA013491332309F440C0222351F12330C5
:101E300071F0243028F42130A1F0223011F514C0C3
:101E40002630B1F02730C1F02430D9F404C080919D
:101E500080008F7703C0809180008F7D8093800009
:101E600010C084B58F7702C084B58F7D84BD09C052
:101E70008091B0008F7703C08091B0008F7D8093F8
:101E8000B000E32FF0E0EE0FFF1FEE58FF4FA591DB
:101E9000B4912FB7F894662321F48C9190958923FF
:101EA00002C08C91892B8C932FBF08950F931F93A1
:101EB000CF93DF93BC018230910510F462E070E0B3
:101EC000E0911A05F0911B05A0E0B0E040E050E081
:101ED00024C08081918186179707D0F086179707D5
:101EE00071F482819381109729F013969C938E93BD
:101EF00012972CC090931B0580931A0527C041159B
:101F0000510519F08417950718F4EF018D01AC0104
:101F1000DF01828193819C01F9013097D1F641154F
:101F20005105F9F0CA01861B970B8430910580F4A6
:101F30008A819B810115110521F0F8019383828329
:101F400004C090931B0580931A05FE01329645C08C
:101F5000FE01E80FF91F61937193029799838883BB
:101F60003CC08091180590911905892B41F480910E
:101F700083019091840190931905809318054091F5
:101F80008501509186014115510541F44DB75EB769
:101F90008091810190918201481B590B2091180575
:101FA0003091190524173507B0F4CA01821B930B31
:101FB0008617970780F0AB014E5F5F4F8417950738
:101FC00050F0420F531F5093190540931805F90123
:101FD0006193719302C0E0E0F0E0CF01DF91CF9117
:101FE0001F910F910895CF93DF939C01009709F4FF
:101FF0008FC0EC0122971B821A8260911A057091A2
:102000001B056115710581F488819981820F931FE9
:1020100020911805309119052817390739F5D09303
:102020001905C093180574C0DB0140E050E0AC17FF
:10203000BD0708F1BB83AA83FE0121913191E20F14
:10204000F31FAE17BF0779F48D919C911197280F5C
:10205000391F2E5F3F4F3983288312968D919C91B3
:1020600013979B838A834115510571F4D0931B0507
:10207000C0931A054DC012968D919C911397AD0196
:10208000009711F0DC01D3CFDA011396DC93CE93E5
:102090001297FA0121913191E20FF31FCE17DF075A
:1020A00069F488819981280F391F2E5F3F4FFA010B
:1020B000318320838A819B8193838283E0E0F0E0F7
:1020C000DB0112968D919C911397009719F0BC013A
:1020D000FD01F6CFAB014E5F5F4FDB018D919C910F
:1020E000840F951F2091180530911905281739077D
:1020F00079F4309729F410921B0510921A0502C04A
:102100001382128242505040509319054093180593
:10211000DF91CF910895CF92DF92EF92FF920F93CC
:102120001F93CF93DF937C016B018A01C0E0D0E065
:102130000FC0D6016D916D01D701ED91FC91019019
:10214000F081E02DC7010995C80FD91F015010403B
:102150000115110571F7CE01DF91CF911F910F91FC
:10216000FF90EF90DF90CF900895AF92BF92CF9203
:10217000DF92EF92FF920F931F93CF93DF935C0157
:102180006B01EE24FF24C0E0D0E010C0D501ED913A
:10219000FC9100811181C601BE010E943111682F9E
:1021A000C501F8010995E80EF91E2196F601848112
:1021B0009581C817D90750F3C701DF91CF911F91BF
:1021C0000F91FF90EF90DF90CF90BF90AF90089568
:1021D0002F923F924F925F926F927F928F929F9237
:1021E000AF92BF92CF92DF92EF92FF920F931F9325
:1021F000DF93CF93CDB7DEB73B014C0119012A0124
:102200006D897E898F89988D6A197B098C099D0952
:10221000621A730A840A950AA40193010E94871620
:10222000E218F30804091509A80197010E94EF16A6
:102230002A0D3B1D4C1D5D1DB901CA01CF91DF91D7
:102240001F910F91FF90EF90DF90CF90BF90AF90D4
:102250009F908F907F906F905F904F903F902F90C6
:102260000895FC01848195816817790748F40190ED
:10227000F081E02D309721F0E60FF71F808108955F
:1022800080E00895AF92BF92CF92DF92EF92FF92DB
:102290000F931F93CF93DF93FC015B017A01DB0166
:1022A00014962D913C9115972115310559F1848192
:1022B0009581009739F18217930720F14817590744
:1022C00020F07C010894E108F10800811181C80127
:1022D000CFEFDFEF6801CE0CDF1C10C0F50160818D
:1022E00071810E9450019C01009771F0801B910B3D
:1022F000E816F90608F0EC01C9010196C816D906DE
:1023000068F702C0CFEFDFEFCE01DF91CF911F91D1
:102310000F91FF90EF90DF90CF90BF90AF90089516
:102320000F931F93CF93DF93EC018B016F5F7F4F70
:10233000888199810E94E813009711F480E005C01C
:10234000998388831B830A8381E0DF91CF911F915A
:102350000F9108952F923F924F925F926F927F92CA
:102360008F929F92AF92BF92CF92DF92EF92FF92A5
:102370000F931F93CF93DF935C012B014A01DC0184
:1023800014960D911C9115970115110509F4D4C0EF
:10239000FB01C480D580C114D10409F4CDC0DA0199
:1023A00014966D907C9015976C187D08FC01E08068
:1023B000F1806114710491F01BC0D4016C911196ED
:1023C0007C91119714964D915C9115978C2F0E94DA
:1023D0002E01F401E480F580EC0EFD1ED2016D911A
:1023E0007C91C7010E945001EC01009731F7A4C015
:1023F00077FE02C067012EC0FB0120803180E8011A
:102400003CC08E010E191F09C601B701A8010E9428
:102410002E010C0D1D1DD4016C9111967C9111970C
:1024200014964D915C911597C8010E942E01F401FC
:10243000C480D580C00ED11ED2011496ED90FC90C0
:102440001597EC0EFD1EF50184819581860D971D73
:1024500095838483D2016D917C91C7010E945001C4
:10246000EC01009771F6C601B7010E94490164C0F2
:102470007B01EC0CFD1CC60DD71DC701B1010E94EC
:102480005001BC010097A1F7C017D10709F454C04F
:10249000F501828193818C179D0708F044C0C50126
:1024A000BE010E9490118823F1F546C0C501B2011A
:1024B000A9010E944211EC0197FD3EC0D5016D912A
:1024C0007C911197F201848195818C0F9D1F680F7B
:1024D000791F14964D915C911597481B590BCB01B0
:1024E000860D971D0E943701D50114968D919C9100
:1024F0001597860D971D15969C938E931497ED91C5
:10250000FC911197E80FF91F10822D913C912C0F2F
:102510003D1FF4016081718144815581C9010E9490
:102520002E019E0105C0D50114962D913C91159761
:102530002150304037FFBACFDF91CF911F910F91DB
:10254000FF90EF90DF90CF90BF90AF909F908F90D3
:102550007F906F905F904F903F902F900895CF9312
:10256000DF93EC0188819981892B29F08A819B81F5
:102570008617970760F4CE010E949011882341F0DE
:102580008C819D81892B19F4E881F981108281E089
:10259000DF91CF910895EF92FF920F931F93CF9306
:1025A000DF93EC017B016C817D81E114F104C1F0CA
:1025B0004115510599F08A01060F171FB8010E94B5
:1025C000AF12882369F0888199812C813D81820F27
:1025D000931FB7010E9449011D830C8381E001C054
:1025E00080E0DF91CF911F910F91FF90EF900895C0
:1025F000EF92FF920F931F93DF93CF93CDB7DEB788
:1026000027970FB6F894DEBF0FBECDBF7C01CB017C
:102610008E010F5F1F4FB8014AE050E00E946A012F
:10262000F80101900020E9F73197E01BF10BC70199
:10263000B801AF010E94CB1227960FB6F894DEBF07
:102640000FBECDBFCF91DF911F910F91FF90EF9003
:102650000895EF92FF920F931F93DF93CF9300D0D3
:1026600000D0CDB7DEB77C01862F90E08E010F5FE2
:102670001F4FB8014AE050E00E946A01F801019042
:102680000020E9F73197E01BF10BC701B801AF015A
:102690000E94CB120F900F900F900F90CF91DF916F
:1026A0001F910F91FF90EF9008956115710511F43E
:1026B00080E00895DB010D900020E9F71197A61B3B
:1026C000B70BAD010E94CB120895FB0160817181AF
:1026D000448155810E94CB120895CF93DF93EC0182
:1026E00088819981009711F00E94F30F1982188256
:1026F0001D821C821B821A82DF91CF910895EF9276
:10270000FF920F931F93CF93DF93EC017B018A011C
:10271000BA010E94AF12882321F4CE010E946D13EA
:1027200007C01D830C8388819981B7010E944901EC
:10273000CE01DF91CF911F910F91FF90EF900895FF
:10274000CF93DF93EC01198218821B821A821D82BB
:102750001C821E826115710551F0DB010D90002075
:10276000E9F71197A61BB70BAD010E947F13DF910C
:10277000CF9108950F931F93182F092F611571059D
:1027800059F0DB010D900020E9F71197A61BB70B5C
:10279000AD010E947F1302C00E946D13812F902F04
:1027A0001F910F910895FC01808191810E94F30F88
:1027B0000895CF93DF930E94630E0E94B609C0E094
:1027C000D0E00E9455092097E1F30E940000F9CF64
:1027D0006F927F928F929F92AF92BF92CF92DF9231
:1027E000EF92FF920F931F93CF93DF938C0100978B
:1027F00029F4CB010E94560F8C01BBC08EEFE82E4E
:102800008FEFF82EE00EF11E4801860E971E8E14F3
:102810009F0408F4ACC0D7014D915C911197461705
:102820005707B8F04530510508F4A3C0CA01049712
:102830008617970708F49DC042505040461B570B1F
:10284000F401419351936D937C93CF010E94F30F58
:1028500090C05B01A41AB50A3801640E751EA091E0
:102860001A05B0911B05CC24DD24E0E0F0E047C060
:10287000A615B705A9F5CD91DC911197CE01029669
:102880008A159B0568F1CE018A199B09029612965A
:102890002C91129713963C91059758F0F4012283DE
:1028A0003383CA19DB09D183C083D7016D937C932D
:1028B00009C04E5F5F4F4C0F5D1FF701518340838E
:1028C000C901FC01C114D10431F0D6011396FC9367
:1028D000EE9312974EC0F0931B05E0931A0549C082
:1028E0008D919C911197E817F90708F4FC016D018F
:1028F00012968C91129713969C919C01D901109776
:1029000009F0B6CF809118059091190586159705A5
:10291000E9F4E617F707D0F420918501309186019C
:102920002115310541F42DB73EB780918101909179
:102930008201281B390B82169306C8F49092190560
:1029400080921805F7017183608313C0CB010E9448
:10295000560FEC01009759F0D7014D915C91B801E9
:102960000E942E01C8010E94F30F8E0102C000E0F8
:1029700010E0C801DF91CF911F910F91FF90EF9070
:10298000DF90CF90BF90AF909F908F907F906F908F
:1029900008955058BB27AA270ED01CC10DD130F086
:1029A00012D120F031F49F3F11F41EF402C10EF455
:1029B000E095E7FBF8C0E92F1ED180F3BA17620754
:1029C00073078407950718F071F49EF536C10EF46D
:1029D000E0950B2EBA2FA02D0B01B90190010C012F
:1029E000CA01A0011124FF27591B99F0593F50F447
:1029F000503E68F11A16F040A22F232F342F44279F
:102A0000585FF3CF469537952795A795F040539596
:102A1000C9F77EF41F16BA0B620B730B840BBAF066
:102A20009150A1F0FF0FBB1F661F771F881FC2F7D1
:102A30000EC0BA0F621F731F841F48F487957795E5
:102A40006795B795F7959E3F08F0B3CF9395880F9C
:102A500008F09927EE0F9795879508950CD0BAC086
:102A6000B2D040F0A9D030F021F45F3F19F09BC004
:102A70005111E4C09EC0BFD098F39923C9F35523E8
:102A8000B1F3951B550BBB27AA2762177307840761
:102A900038F09F5F5F4F220F331F441FAA1FA9F317
:102AA00033D00E2E3AF0E0E830D091505040E69509
:102AB000001CCAF729D0FE2F27D0660F771F881F6A
:102AC000BB1F261737074807AB07B0E809F0BB0B59
:102AD000802DBF01FF2793585F4F2AF09E3F51057D
:102AE00068F061C0ABC05F3FECF3983EDCF38695C5
:102AF00077956795B795F7959F5FC9F7880F911DF3
:102B00009695879597F90895E1E0660F771F881FDE
:102B1000BB1F621773078407BA0720F0621B730B91
:102B2000840BBA0BEE1F88F7E0950895E89409C06E
:102B300097FB3EF490958095709561957F4F8F4FF0
:102B40009F4F9923A9F0F92F96E9BB279395F69506
:102B5000879577956795B795F111F8CFFAF4BB0F84
:102B600011F460FF1BC06F5F7F4F8F4F9F4F16C0E8
:102B7000882311F096E911C0772321F09EE8872F72
:102B8000762F05C0662371F096E8862F70E060E02E
:102B90002AF09A95660F771F881FDAF7880F9695A7
:102BA000879597F9089597F99F6780E870E060E04E
:102BB00008959FEF80EC089500240A9416161706D6
:102BC00018060906089500240A941216130614061E
:102BD00005060895092E0394000C11F4882352F081
:102BE000BB0F40F4BF2B11F460FF04C06F5F7F4F39
:102BF0008F4F9F4F089557FD9058440F551F59F020
:102C00005F3F71F04795880F97FB991F61F09F3FD9
:102C100079F087950895121613061406551FF2CF02
:102C20004695F1DF08C0161617061806991FF1CF52
:102C300086957105610508940895E894BB27662779
:102C40007727CB0197F908950BD0C4CFB5DF28F0D3
:102C5000BADF18F0952309F0A6CFABCF1124EECF41
:102C6000CADFA0F3959FD1F3950F50E0551F629FE7
:102C7000F001729FBB27F00DB11D639FAA27F00DD5
:102C8000B11DAA1F649F6627B00DA11D661F829FFC
:102C90002227B00DA11D621F739FB00DA11D621FE1
:102CA000839FA00D611D221F749F3327A00D611DFE
:102CB000231F849F600D211D822F762F6A2F1124E0
:102CC0009F5750408AF0E1F088234AF0EE0FFF1F33
:102CD000BB1F661F771F881F91505040A9F79E3F6A
:102CE000510570F060CFAACF5F3FECF3983EDCF364
:102CF000869577956795B795F795E7959F5FC1F7A7
:102D0000FE2B880F911D9695879597F90895629FE0
:102D1000D001739FF001829FE00DF11D649FE00DD3
:102D2000F11D929FF00D839FF00D749FF00D659F34
:102D3000F00D9927729FB00DE11DF91F639FB00D33
:102D4000E11DF91FBD01CF0111240895AA1BBB1B72
:102D500051E107C0AA1FBB1FA617B70710F0A61B9B
:102D6000B70B881F991F5A95A9F780959095BC01BC
:102D7000CD01089597FB092E07260AD077FD04D0D0
:102D8000E5DF06D000201AF4709561957F4F089515
:102D9000F6F7909581959F4F0895A1E21A2EAA1BF0
:102DA000BB1BFD010DC0AA1FBB1FEE1FFF1FA217FB
:102DB000B307E407F50720F0A21BB30BE40BF50BF8
:102DC000661F771F881F991F1A9469F76095709581
:102DD000809590959B01AC01BD01CF01089597FBB3
:102DE000092E05260ED057FD04D0D7DF0AD0001CCF
:102DF00038F450954095309521953F4F4F4F5F4F98
:102E00000895F6F790958095709561957F4F8F4F57
:102E10009F4F08952F923F924F925F926F927F92B1
:102E20008F929F92AF92BF92CF92DF92EF92FF92DA
:102E30000F931F93CF93DF93CDB7DEB7CA1BDB0B86
:102E40000FB6F894DEBF0FBECDBF09942A8839882B
:102E500048885F846E847D848C849B84AA84B98432
:102E6000C884DF80EE80FD800C811B81AA81B9813E
:102E7000CE0FD11D0FB6F894DEBF0FBECDBFED0152
:102E80000895EE0FFF1F0590F491E02D099411E0D5
:102E9000CEEBD1E004C0FE010E9443172296C03C55
:082EA000D107C9F7F894FFCF38
:102EA80043793120437933204379352052504D00FE
:102EB8004379322043793420437936206E6E6E0090
:102EC800317074203D3D0020696E63686573204849
:102ED80067000043796C696E64657273203D200059
:102EE80043616C696272617465203D200020004373
:102EF8007936004379350043793400437933004308
:102F0800793200437931006E6E6E0052504D0002E6
:102F180000050001000400000003005101016404E1
:102F28000180001C05000000000000EE0B8B100063
:082F38000040001400540000E9
:00000001FF
